:0400000091EF35F057
:08000800046ED8CF05F0E0CF33
:1000100006F00001E9CF0CF0EACF07F0E1CF08F0DD
:10002000E2CF09F0D9CF0AF0DACF0BF0F3CF12F01C
:10003000F4CF13F0FACF14F0FBCF15F000C00EF0A0
:1000400001C00FF002C010F003C011F09DA22CEF10
:1000500000F09EB259EF05F0A3A032EF00F0A4B07B
:10006000CDEF04F00EC000F00FC001F010C002F0A0
:1000700011C003F00CC0E9FF07C0EAFF078E08C0FB
:10008000E1FF09C0E2FF0AC0D9FF0BC0DAFF12C0CE
:10009000F3FF13C0F4FF14C0FAFF15C0FBFF0450B8
:1000A00006C0E0FF05C0D8FF1000F2CF0DF0F29EB1
:1000B000F76AC80FF66E000EF722000EF86E090000
:1000C000F5500DBEF28E12005365746120526967BF
:1000D00068740000F2CF0DF0F29EF76AF20FF66E30
:1000E000000EF722000EF86E0900F5500DBEF28EDC
:1000F000120053657461204C65667400F2CF0DF0F8
:10010000F29EF76A1A0FF66E010EF722000EF86ED5
:100110000900F5500DBEF28E1200496E65727469C9
:100120006100F2CF0DF0F29EF76A400FF66E010EFD
:10013000F722000EF86E0900F5500DBEF28E120087
:100140005365746120436F636B7069740000F2CF74
:100150000DF0F29EF76A6C0FF66E010EF722000E9C
:10016000F86E0900F5500DBEF28E1200485620427E
:100170006F780000F2CF0DF0F29EF76A920FF66EE4
:10018000010EF722000EF86E0900F5500DBEF28E3A
:10019000120048564420496E7465726C6F636B00A0
:1001A000F2CF0DF0F29EF76ABE0FF66E010EF72247
:1001B000000EF86E0900F5500DBEF28E1200496E69
:1001C000766572746572204C65667420496E74653C
:1001D000726C6F636B00F2CF0DF0F29EF76AF40F52
:1001E000F66E010EF722000EF86E0900F5500DBEF6
:1001F000F28E1200496E76657274657220526967DC
:10020000687420496E7465726C6F636B0000F2CF86
:100210000DF0F29EF76A2C0FF66E020EF722000E1A
:10022000F86E0900F5500DBEF28E120054534D5079
:1002300020696E7465726C6F636B0000F2CF0DF015
:10024000F29EF76A5A0FF66E020EF722000EF86E53
:100250000900F5500DBEF28E12005061636B6167AC
:100260006520496E7465726C6F636B00F2CF0DF0A0
:10027000F29EF76A8A0FF66E020EF722000EF86EF3
:100280000900F5500DBEF28E12004F6F70732120E1
:10029000536F6D657468696E6700F2CF0DF0F29E62
:1002A000F76AB80FF66E020EF722000EF86E09001C
:1002B000F5500DBEF28E120077656E742077726F66
:1002C0006E672E2E2E280000F2CF0DF0F29EF76AF8
:1002D000E60FF66E020EF722000EF86E0900F550DA
:1002E0000DBEF28E1200454E445552414E4345001C
:1002F000F2CF0DF0F29EF76A0E0FF66E030EF722A4
:10030000000EF86E0900F5500DBEF28E1200574F28
:10031000524B53484F500000F2CF0DF0F29EF76A57
:10032000360FF66E030EF722000EF86E0900F55038
:100330000DBEF28E1200435553544F4D0000F2CFC4
:100340000DF0F29EF76A5C0FF66E030EF722000EB8
:10035000F86E0900F5500DBEF28E12004143434580
:100360004C45524154494F4E0000F2CF0DF0F29EE1
:10037000F76A880FF66E030EF722000EF86E09007A
:10038000F5500DBEF28E1200534B494450414400CB
:10039000F2CF0DF0F29EF76AAE0FF66E030EF72263
:1003A000000EF86E0900F5500DBEF28E1200415598
:1003B000544F43524F535300F2CF0DF0F29EF76A61
:1003C000D60FF66E030EF722000EF86E0900F550F8
:1003D0000DBEF28E12005052452D43484152474502
:1003E0002053455155454E434500F2CF0DF0F29E46
:1003F000F76A080FF66E040EF722000EF86E090079
:10040000F5500DBEF28E120073657175656E6365F1
:1004100020696E696369616C697A6174696F6E00E5
:10042000F2CF0DF0F29EF76A3E0FF66E040EF72241
:10043000000EF86E0900F5500DBEF28E12005761E5
:100440006974696E6720666F722070726563686197
:1004500072676500F2CF0DF0F29EF76A720FF66ECA
:10046000040EF722000EF86E0900F5500DBEF28E54
:10047000120073657175656E636520696E696369E5
:10048000616C697A6174696F6E202E00F2CF0DF095
:10049000F29EF76AAA0FF66E040EF722000EF86EAF
:1004A0000900F5500DBEF28E120073657175656E10
:1004B000636520696E696369616C697A6174696FEB
:1004C0006E202E202E00F2CF0DF0F29EF76AE40F80
:1004D000F66E040EF722000EF86E0900F5500DBE00
:1004E000F28E120073657175656E636520696E69C1
:1004F0006369616C697A6174696F6E202E202E20A9
:100500002E00F2CF0DF0F29EF76A200FF66E050E68
:10051000F722000EF86E0900F5500DBEF28E1200A3
:10052000534B465F61637475616C0000F2CF0DF050
:10053000F29EF76A4A0FF66E050EF722000EF86E6D
:100540000900F5500DBEF28E1200434B465F616309
:100550007475616C0000140E0F01316F200E326F44
:10056000010E356FF3C836FF3087000102EF05F04A
:10057000140E0F01216F226B010E256F03C926FF98
:100580002087000103EF05F0100E0F01416FA00E50
:10059000426F010E456FF4C846FF4087000108EF27
:1005A00005F0160E0F01416F426B010E456F0901F8
:1005B0003D5DFA0F59E2060F000139EF03F0010E1D
:1005C0000F01466F090150D009013C2D05D00B0EDB
:1005D0000F01466F07D009013C51020804E10C0EDF
:1005E0000F01466F090140D009013E2D05D0150EBF
:1005F0000F01466F07D009013E51020804E1160EB3
:100600000F01466F090130D009013E2D05D01F0EA4
:100610000F01466F07D009013E51020804E1200E88
:100620000F01466F090120D009013E2D05D0290E8A
:100630000F01466F07D009013E51020804E12A0E5E
:100640000F01466F090110D009013E2D05D0330E70
:100650000F01466F07D009013E51020804E1340E34
:100660000F01466F090100D00F01408700010DEF17
:1006700005F0E824F76AF736930FF66E060EF722B8
:10068000000EF86EFB6E0A00F550FA6E0800F55089
:10069000F96EBE05C805E8050806280648060A01E1
:1006A0004751070B006E4731016E013201321F0EB8
:1006B000011601504925E96E000E4A21EA6E016AD1
:1006C000012A002A01D00136002EFDD7485303E04D
:1006D0000150EF1203D0011E0150EF160001000C73
:1006E0000901265319E1275317E15BC847FA010EA8
:1006F0000A01486F0F0E4A6F890E496F0001CFDF64
:100700005BC847FA0A01486B0F0E4A6F920E496F99
:100710000001C5DF15D009015BC847FA0A01486B23
:100720000F0E4A6F890E496F0001B9DF5BC847FAA7
:100730000A01486B0F0E4A6F920E496F0001AFDF3E
:100740000901285319E1295317E15CC847FA010E42
:100750000A01486F0F0E4A6F890E496F00019FDF33
:100760005CC847FA0A01486B0F0E4A6F920E496F38
:10077000000195DF15D009015CC847FA0A01486BF2
:100780000F0E4A6F890E496F000189DF5CC847FA76
:100790000A01486B0F0E4A6F920E496F00017FDF0E
:1007A0000FEF05F00801FA390A01476F4733473365
:1007B000030E47174751010B09012A6F0801FA3947
:1007C0000A01476F4733070E47174751010B0901CD
:1007D0002B6F0801FA390A01476F0F0E471747516F
:1007E000010B09012C6F0801FA310A01476F4733E9
:1007F00047331F0E47174751010B09012D6F0801A1
:10080000FA310A01476F47333F0E47174751010B33
:1008100009012E6FD8900801FA31010B09012F6FE1
:10082000FAC847FA0A014751010B0901306F080164
:10083000FA310A01486F0801F9310A01476F48335C
:1008400047334833473348334733483347334833D4
:10085000473348334733010E48174751010B09010D
:10086000316F0801FA310A01486F0801F9310A01B4
:10087000476F483347334833473348334733483368
:10088000473348334733030E48174751010B0901DB
:10089000326F0801FA310A01486F0801F9310A0183
:1008A000476F483347334833473348334733483338
:1008B0004733070E48174751010B0901336F0801F1
:1008C000FA310A01486F0801F9310A01476F4833CC
:1008D000473348334733483347330F0E48174751A0
:1008E000010B0901346F0801FA310A01486F080150
:1008F000F9310A01476F48334733483347331F0EF6
:1009000048174751010B0901356F0801FA310A01F7
:10091000486F0801F9310A01476F483347333F0EEA
:1009200048174751010B0901366FD8900801FA3179
:100930000801F931010B0901376F0801F951010B69
:100940000901386F0801F751080B0A01476F486B1E
:1009500048310901276F0A0147310901266F273302
:100960002633273326331F0E27170801F751100BA4
:100970000A01476F486B48310901296F0A01473165
:100980000901286F293328332933283329332833A1
:100990000F0E2917000153EF05F00A01486B61CFD4
:1009A00047FA473748374737483747374837F80E09
:1009B00047176250E00B006E003A0032070E001637
:1009C000005047110801EE6F48CAEFF80801655062
:1009D0000F0BF06FF16BEE51800822E1EF5320E135
:1009E000F52BF55103080CE2F56BF62B1A0E0F01EF
:1009F000416F200E426F010E456FF6C846FF4087DB
:100A00000001A9D5B5D50901515303E10001BCD5B9
:100A10000901042D02D00001C4D5000161D60801EE
:100A2000EE518A0804E1EF5302E166CFF2F8EE518D
:100A3000C50815E1EF5313E166CFFCF867CFFBF86B
:100A400068CFFDF869CFFFF86ACFFEF86BCF00F9E9
:100A5000036A6CCF01F9090103C002F90801EE51E4
:100A6000C60813E1EF5311E166CF07F967CF08F924
:100A70000901066B68CF05F969CF09F91C6B6ACFCC
:100A80001BF91E6B6BCF1DF90801EE51BA080CE182
:100A9000EF530AE166CFFAF867CFF9F8F86B68CF41
:100AA000F7F800017FD60801609EA490000132EFA4
:100AB00000F009015051770802E3502B03D0506B2E
:100AC000010E4F6F482D05D0492B493D02D0496B8F
:100AD0003A6B4A2B4A3D05D04B2B4B51040801E1A0
:100AE0004B6B4C2D48D04D2B4D51FA0844E14D6BCA
:100AF0004E2B4E5105083FE14E6B5DC847FA0A0187
:100B0000486B0F0E4A6F890E496F0001C8DD5DC842
:100B100047FA0A01486B0F0E4A6F920E496F0001A7
:100B2000BEDD5CC847FA0A01486B0F0E4A6F890E9A
:100B3000496F0001B4DD5CC847FA0A01486B0F0E2B
:100B40004A6F920E496F0001AADD5BC847FA0A019D
:100B5000486B0F0E4A6F890E496F0001A0DD5BC81C
:100B600047FA0A01486B0F0E4A6F920E496F000157
:100B700096DD09014C6B9E92000132EF00F00901F5
:100B80005A39700B006ED89000361F0E6F1400108B
:100B90006F6E6ECF00F0003A0030070B5A5DF9E13E
:100BA0000001000CC00E70140409706E3F0E70142A
:100BB000706EF80E71140209716EC70E7114280957
:100BC000716E719C718EF80E72140509726E729CB2
:100BD0008AEF06F05BC962F95AC961F909016053ED
:100BE00052E061C9E9FF62C9EAFF5CC9EFFF6151E8
:100BF000D8B46207610761C9E9FF62C9EAFF5DC94C
:100C0000EFFF6151D8B46207610761C9E9FF62C9AA
:100C1000EAFF5E51030BEF6E61C9E9FF62C9EAFFAB
:100C20005EC900F0003600360036F80E001600509F
:100C3000E00BEF10EF6E61C9E9FF62C9EAFFEF5008
:100C40000809EF6E6151D8B46207610761C9E9FF15
:100C500062C9EAFF5EC900F0003A0032070E0016D2
:100C60000050070BEF6E61C9E9FF62C9EAFF5FC977
:100C700000F0003600360036F80E00160050F80B73
:100C8000EF10EF6E3FD061C9E9FF62C9EAFFEF6A7A
:100C90006151D8B46207610761C9E9FF62C9EAFF1F
:100CA000EF6A6151D8B46207610761C9E9FF62C99F
:100CB000EAFF5CC900F0003A0036E00E0016005072
:100CC000E00BEF6E6151D8B46207610761C9E9FFBB
:100CD00062C9EAFF5CC900F00032003200321F0E28
:100CE000001600501F0BEF6E61C9E9FF62C9EAFFF1
:100CF0005DC900F0003A0036E00E00160050E00B2F
:100D0000EF10EF6E0001000C040E09015A6F000194
:100D100036DF48D7606A9F0E6014606E608460CFD3
:100D200050FF739A7398739E739C0F0E09015B6F4B
:100D30001B0E5A6F5F6B5E6B5D6B5C6B606B0001D3
:100D400049DF0F0E09015B6F030E5A6F5F6B5E6B1D
:100D50005D6B5C6B606B00013DDF0F0E09015B6F2B
:100D6000070E5A6F5F6B5E6B5D6B5C6B606B0001B7
:100D700031DF0F0E09015B6F1F0E5A6F5F6B5E6BE9
:100D80005D6B5C6B606B000125DF0F0E09015B6F13
:100D90000B0E5A6F5F6B5E6B5D6B5C6B606B000183
:100DA00019DF0F0E09015B6F5A6F5F6B5E6B5D6B36
:100DB0005C6B606B00010EDF0F0E09015B6F130EA1
:100DC0005A6F5F6B5E6B5D6B5C6B606B000102DF8B
:100DD0000F0E09015B6F170E5A6F5F6B5E6B5D6BD9
:100DE0005C6B606B0001F6DE9350FB0B0809090198
:100DF000936E5A6B0001C3DE03EF07F0F29CF29E84
:100E0000F2BEFDD781D7040E09015A6F0001B7DE8B
:100E1000C00E70140109706E3F0E7014706EF80EE3
:100E200071140109716EC70E71142009716E719CE5
:100E3000718EF80E72140109726E729C200E736E20
:100E400009015A6B00019BDEA380C00EF212A1EFD4
:100E500009F095948C84949A8B8A94988B889596B3
:100E60008C8694948B8495928C8295908C809496A9
:100E70008B86000C090EEA6E5B0EE96EEF500DE0FA
:100E8000060E016E006A002EFED7012EFBD77B0EE8
:100E9000006E002EFED7EF2EF3D7000C96908D90AB
:100EA000050E09015B6F0001E5DF96908D80050E50
:100EB00009015B6F0001DEDF000C96928D92929823
:100EC0008998929A899A0801676B666B665309E163
:100ED000675307E10001E2DF0801662BD8B4672BF6
:100EE000F5D70001000C959A8C9A96948D940A017E
:100EF0001A6B196B1A5314E11951070811E318AF53
:100F000003D0959E8C8E02D0959E8C9E959C8C8C49
:100F1000959C8C9CD8901837192BD8B41A2BEAD7EB
:100F200096948D840001000C96948D9495988C98DD
:100F3000320E09015B6F00019DDF95988C889694B5
:100F40008D94959A8C9AA20E0A01186F0001CBDF3E
:100F5000A10E0A01186F0001C6DFC00E0A01186F4A
:100F60000001C1DF010E04014E6F230E0A01186F4C
:100F70000001B9DF2F0E0A01186F0001B4DF810EE6
:100F80000A01186F0001AFDF1F0E0A01186F000180
:100F9000AADF400E0A01186F0001A5DFAF0E0A019B
:100FA000186F0001A0DF96948D84ADEF09F0959A3B
:100FB0008C8A96948D940A01196B186B195314E15D
:100FC0001851070811E317AF03D0959E8C8E02D0FD
:100FD000959E8C9E959C8C8C959C8C9CD89017375C
:100FE000182BD8B4192BEAD796948D840001000CE5
:100FF00009015B6B010E5A6F5B5103080BE34F0E47
:101000005A25E96E040E5B21EA6EEF6A5A2BD8B4BA
:101010005B2BF2D75C6B5C5107081EE35C51B00997
:101020005E6FE8CF18FA00015EDF0A01186B00015D
:101030005ADF100E0A01186F000155DF09015D6BC0
:101040005D51830807E30A01176B0001B0DF090156
:101050005D2BF6D75C2BDFD70001000C09015A513C
:10106000070803E35B513F0801E210D05A51200901
:101070005C6FE8CF18FA000136DF810E0A01186FA5
:10108000000131DF5BC918FA2EDF09010001BFEF53
:1010900009F00A013E51800803E33F51400801E294
:1010A00058D03E5302E03F5301E153D0010E3E5F62
:1010B0003F5F446B466B3FCA45FA46334533463380
:1010C0004533463345331F0E46174535026E4635C8
:1010D000036E023603360236033602360336023614
:1010E00003360236033602360336800E02160250ED
:1010F0003E25416F03504421426F405315E04F0E8F
:101100004125E96E040E4221EA6E3F51070B016E44
:10111000010E006E015204E0D8900036012EFCD77B
:101120000050EF10EF6E15D04F0E4125E96E040E02
:101130004221EA6E3F51070B016E010E006E015213
:1011400004E0D8900036012EFCD70050FF0AEF14BF
:10115000EF6E0001000C0A011B511F5D3E6F1C5118
:1011600020593F6F3E513FCA37FA3ECA36FA1D51E9
:10117000215D3E6F1E5122593F6F3E513FCA39FAE1
:101180003ECA38FA1CCA3BFA1BCA3AFA1ECA3DFAD2
:101190001DCA3CFA1C51205D0AE303E11B511F5D8F
:1011A00006E3256B010E246F336B326F05D0FF0E03
:1011B000256F246F336F326F1E51225D0AE303E106
:1011C0001D51215D06E3276B010E266F356B346FD1
:1011D00005D0FF0E276F266F356F346F3951375D9D
:1011E0001AE303E13851365D16E3256B246B356B4A
:1011F000346B37CA29FA36CA28FAD89037312B6FA0
:1012000036312A6F39CA2DFA38CA2CFA37CA2FFA62
:1012100036CA2EFA15D0336B326B276B266B39CA60
:1012200029FA38CA28FAD89039312B6F38312A6F09
:1012300037CA2DFA36CA2CFA39CA2FFA38CA2EFA0A
:10124000316B306B31512F5D30E303E130512E5D56
:101250002CE33ACA3EFA3CCA3FFA23CA40FA0001DC
:1012600018DF0A012C512A272D512B2329512B5DE0
:1012700010E303E128512A5D0CE328512A5F29512C
:101280002B5B24513A2725513B2326513C272751DC
:101290003D2332513A2733513B2334513C273551BA
:1012A0003D23302BD8B4312BCDD70001000C0A01DF
:1012B0001251165D1B6F135117591C6F1B5302E11E
:1012C0001C531AE013CA1CFA12CA1BFA15CA1EFADA
:1012D00014CA1DFA13CA20FA12CA1FFA19CA22FA2E
:1012E00018CA21FA1ACA23FA000135DF010E0A01D1
:1012F0001227000E1323DCD70001000C176AF2BE80
:10130000178EF29E5DC847FA0A01486B0F0E4A6FAE
:10131000890E496F00014FEC03F017BEF28E176A79
:10132000F2BE178EF29E5DC847FA0A01486B0F0E97
:101330004A6F920E496F00014FEC03F017BEF28E18
:101340005DD587DDBADD9D82F18CC00EF212480EAC
:101350000509CA6EFA0ECB6EE7D5C80E09015B6FA0
:10136000000188DD45DEC80E09015B6F000182DDEA
:10137000060E09015A6F190E5B6F00016FD60A0144
:10138000136B010E126F156B146F176B800E166FB7
:10139000196B400E186F1A6B000189DF176AF2BED5
:1013A000178EF29E5CC847FA010E0A01486F0F0EB5
:1013B0004A6F890E496F00014FEC03F017BEF28EA1
:1013C000176AF2BE178EF29E5CC847FA0A01486B94
:1013D0000F0E4A6F920E496F00014FEC03F017BEDB
:1013E000F28E176AF2BE178EF29E5BC847FA010EA4
:1013F0000A01486F0F0E4A6F890E496F00014FECCA
:1014000003F017BEF28E176AF2BE178EF29E5BC80B
:1014100047FA0A01486B0F0E4A6F920E496F00019E
:101420004FEC03F017BEF28E010E09014C6F000164
:10143000D3EF3DF00A0117511919800B1B6F17AF3D
:1014400005D0161F171F162BD8B4172B19AF05D0B0
:10145000181F191F182BD8B4192B16511803F3CFC6
:1014600001F0F4CF00F01903F350002617511803D0
:10147000F3500020026E1BAF05D0011E021E012A90
:10148000D8B4022A00017DEF0AF00A01136B126B37
:1014900013BF05D013534FE1125107084CE312510B
:1014A000B009166F13CA17FA186F00011CDD04018A
:1014B0004E5307E1040E0A01186F000114DD05D038
:1014C00004010A01186B00010EDD100E0A01186FED
:1014D000000109DD0A01156B146B15BF05D015530A
:1014E00026E114517F0823E313CA17FA12CA16FA29
:1014F000196B800E186F00019DD702C017FA01C04A
:1015000016FA0A0114511627155117234F0E1625E6
:10151000E96E040E1721EA6EEFCF16FA16CA17FA13
:10152000000145DD0A01142BD8B4152BD6D7122B98
:10153000D8B4132BADD70001000C0A01136B190EA0
:10154000126F156B080E146F176B1F0E166F196B49
:10155000390E186F010E1A6F0001A9DE0A01136B14
:101560001F0E126F156B080E146F176B2B0E166F74
:10157000196B110E186F010E1A6F000198DE0A0127
:10158000136B1F0E126F156B1D0E146F176B2B0E46
:10159000166F196B230E186F010E1A6F000187DE8C
:1015A0000A01136B1F0E126F156B300E146F176B41
:1015B0002B0E166F196B390E186F010E1A6F000182
:1015C00076DE0A01136B320E126F156B080E146F64
:1015D000176B4C0E166F196B110E186F010E1A6FE8
:1015E000000165DE0A01136B3C0E126F156B120EC3
:1015F000146F176B420E166F196B390E186F010EB0
:101600001A6F000154DE0A01136B530E126F156B33
:10161000080E146F176B580E166F196B390E186F72
:10162000010E1A6F000143DE0A01136B530E126F95
:10163000156B080E146F176B620E166F196B110E77
:10164000186F010E1A6F000132DE0A01136B590E7A
:10165000126F156B1D0E146F176B630E166F196BDF
:10166000250E186F010E1A6F000121DE0A01136B9F
:10167000620E126F156B0C0E146F176B660E166FE1
:10168000196B230E186F010E1A6F000110DE0A018C
:10169000136B630E126F156B090E146F176B640ECC
:1016A000166F196B0B0E186F010E1A6F0001FFDD1C
:1016B0000A01136B650E126F156B0A0E146F176B10
:1016C000650E166F196B0B0E186F010E1A6F000165
:1016D000EEDD0A01136B640E126F156B240E146F8E
:1016E000176B650E166F196B240E186F010E1A6FAB
:1016F0000001DDDD0A01136B5B0E126F156B260E08
:10170000146F176B620E166F196B270E186F010E90
:101710001A6F0001CCDD0A01136B5C0E126F156BA2
:10172000280E146F176B620E166F196B2A0E186F46
:10173000010E1A6F0001BBDD0A01136B5D0E126F03
:10174000156B2A0E146F176B630E166F196B2D0E27
:10175000186F010E1A6F0001AADD0A01136B5E0EED
:10176000126F156B2E0E146F176B640E166F196BBC
:10177000310E186F010E1A6F000199DD0A01136B0B
:101780005F0E126F156B320E146F176B650E166FAE
:10179000196B340E186F010E1A6F000188DD0A01F3
:1017A000136B600E126F156B340E146F176B660E91
:1017B000166F196B390E186F010E1A6F000177DD65
:1017C00064DED5EF3DF00801F36B0901516B0801B0
:1017D000F46B0901236B036B010E3B6F3F6F3D6F91
:1017E0003C6B3E6B0801F46B0901236B000129EC93
:1017F00007F05DEC07F0ECEF3DF068C91CFA67C933
:101800001BFA6AC91EFA69C91DFA6CC920FA6BC9AC
:101810001FFA6AC922FA69C921FA6FC923FA9BDC47
:1018200068C91CFA67C91BFA6AC91EFA69C91DFA98
:1018300068C920FA67C91FFA6EC922FA6DC921FA70
:101840006FC923FA88DC68C91CFA67C91BFA6EC91C
:101850001EFA6DC91DFA6CC920FA6BC91FFA6EC950
:1018600022FA6DC921FA6FC923FA75DC6CC91CFA1A
:101870006BC91BFA6AC91EFA69C91DFA6CC920FA3C
:101880006BC91FFA6EC922FA6DC921FA6FC923FA12
:1018900062DC000C25CA2CFA26CA2DFA25CA2EFABB
:1018A00026CA2FFA0A0127CAE9FF28CAEAFFEF2C45
:1018B00001D009D02CCA00F02DCA01F02ECA02F0C6
:1018C0002FCA03F0C4D0010E2725E96E000E28218F
:1018D000EA6EEF50020809E02CCA00F02DCA01F0B0
:1018E0002ECA02F02FCA03F0B2D0020E2725E96EED
:1018F000000E2821EA6EEF50245D13E3020E272527
:10190000E96E000E2821EA6EEFCF32FA030E27258A
:10191000E96E000E2821EA6EEF503225245D0AE0C0
:1019200009E32CCA00F02DCA01F02ECA02F02FCA1A
:1019300003F08DD0020E2725E96E000E2821EA6EF5
:10194000EF50245FD8902435050F036A2725E96EF0
:1019500028510320EA6EEF50036A296F03C02AFA68
:1019600029CA2AFA296BD8902435060F036A27253D
:10197000E96E28510320EA6EEF50291327512925DB
:10198000E96E28512A21EA6EEFCF2BFA306B2B51EA
:10199000305D48E2316B040E2725E96E000E2821E8
:1019A000EA6EEF50315D3CE23151070B03E1292B28
:1019B000D8B42A2B27512925E96E28512A21EA6E0D
:1019C000EFCF32FA3151070B016E010E006E01525A
:1019D00004E0D8900036012EFCD70050321510E0FC
:1019E00030512525326F31512625336F32CA3EFAE8
:1019F0003F6F010E406F000149EC08F00ED00A0164
:101A000030512525326F31512625336F32CA3EFAC7
:101A10003F6F406B000149EC08F00A01312BBBD746
:101A2000302BB5D72B512C25FF0F2E6F040E2725F9
:101A3000E96E000E2821EA6EEF502D252F6F2CCA7B
:101A400000F02DCA01F02ECA02F02FCA03F00001E7
:101A500050EF0DF016CA1BFA17CA1CFA010E0A0144
:101A60001A2715CA03F014CAE9FF15CAEAFFEF5294
:101A700024E015CA03F01451142BD8B4152BE96EC9
:101A800003C0EAFFEFCF23FA23CA24FA16CA25FAC5
:101A900017CA26FA19CA28FA18CA27FA0001FAD66C
:101AA00003C022FA02C021FA01C020FA00C01FFAC6
:101AB0000A011A512125166FD4D721CA1DFA22CA4C
:101AC0001EFA1BCA00F01CCA01F01DCA02F01ECA91
:101AD00003F00001000C09012A2D38D00A01136B14
:101AE000180E126F156B1E0E146F176B720E166F99
:101AF000196B390E186F1A6B000157EC09F0090EBB
:101B0000EA6E5A0EE96EF2CF12FAF29E0B0E016ED9
:101B1000F76A000E55EC00F00A000900F5CFEEFF61
:101B2000012EFBD70A0112BFF28E090E156F5A0E55
:101B3000146F140E166F1B0E176F196B180E186F9B
:101B4000010E1A6F000186DF3DD309012B2D38D01D
:101B50000A01136B180E126F156B1E0E146F176BA4
:101B6000720E166F196B390E186F1A6B000157EC55
:101B700009F0090EEA6E650EE96EF2CF12FAF29ED6
:101B80000A0E016EF76A000E6AEC00F00A00090006
:101B9000F5CFEEFF012EFBD70A0112BFF28E090E20
:101BA000156F650E146F140E166F1B0E176F196BE1
:101BB000180E186F010E1A6F00014CDF03D30901D4
:101BC0002C2D38D00A01136B180E126F156B1E0ED8
:101BD000146F176B720E166F196B390E186F1A6B24
:101BE000000157EC09F0090EEA6E6F0EE96EF2CFB4
:101BF00012FAF29E080E016EF76A000E7EEC00F0FB
:101C00000A000900F5CFEEFF012EFBD70A0112BF33
:101C1000F28E090E156F6F0E146F140E166F1B0ED9
:101C2000176F196B180E186F010E1A6F000112DF73
:101C3000C9D209012D2D2DD00A01136B180E126F78
:101C4000156B1E0E146F176B720E166F196B390E13
:101C5000186F1A6B000157EC09F0420E0901776FFB
:101C60004F0E786F540E796F530E7A6F7B6B090E9F
:101C70000A01156F770E146F140E166F1B0E176F77
:101C8000196B180E186F010E1A6F0001E3DE9AD25D
:101C900009012E2D38D00A01136B180E126F156B27
:101CA0001E0E146F176B720E166F196B390E186FAC
:101CB0001A6B000157EC09F0090EEA6E7C0EE96E12
:101CC000F2CF12FAF29E0D0E016EF76A000E91EC41
:101CD00000F00A000900F5CFEEFF012EFBD70A0144
:101CE00012BFF28E090E156F7C0E146F140E166F54
:101CF0001B0E176F196B180E186F010E1A6F00016B
:101D0000A9DE60D209012F2D2BD00A01136B180E0A
:101D1000126F156B1E0E146F176B720E166F196B08
:101D2000390E186F1A6B000157EC09F0420E0901C9
:101D3000896F4D0E8A6F530E8B6F8C6B090E0A01E3
:101D4000156F890E146F140E166F1B0E176F196B1B
:101D5000180E186F010E1A6F00017CDE33D20901D4
:101D6000302D2BD00A01136B180E126F156B1E0E3F
:101D7000146F176B720E166F196B390E186F1A6B82
:101D8000000157EC09F0490E09018D6F4D0E8E6F61
:101D9000440E8F6F906B090E0A01156F8D0E146F34
:101DA000140E166F1B0E176F196B180E186F010E9D
:101DB0001A6F00014FDE06D20901312D2DD00A0124
:101DC000136B180E126F156B1E0E146F176B720EBD
:101DD000166F196B390E186F1A6B000157EC09F06A
:101DE000420E0901916F530E926F500E936F440E85
:101DF000946F956B090E0A01156F910E146F140EF6
:101E0000166F1B0E176F196B180E186F010E1A6FD5
:101E1000000120DED7D10901322D38D00A01136B21
:101E2000180E126F156B1E0E146F176B720E166F55
:101E3000196B390E186F1A6B000157EC09F0090E77
:101E4000EA6E960EE96EF2CF12FAF29E070E016E5E
:101E5000F76A000EA7EC00F00A000900F5CFEEFFCC
:101E6000012EFBD70A0112BFF28E090E156F960ED6
:101E7000146F140E166F1B0E176F196B180E186F58
:101E8000010E1A6F0001E6DD9DD10901332D38D016
:101E90000A01136B180E126F156B1E0E146F176B61
:101EA000720E166F196B390E186F1A6B000157EC12
:101EB00009F0090EEA6E9D0EE96EF2CF12FAF29E5B
:101EC0000E0E016EF76A000EBAEC00F00A0009006F
:101ED000F5CFEEFF012EFBD70A0112BFF28E090EDD
:101EE000156F9D0E146F140E166F1B0E176F196B66
:101EF000180E186F010E1A6F0001ACDD63D10901D5
:101F0000342D38D00A01136B180E126F156B1E0E8C
:101F1000146F176B720E166F196B390E186F1A6BE0
:101F2000000157EC09F0090EEA6EAB0EE96EF2CF34
:101F300012FAF29E180E016EF76A000ED0EC00F055
:101F40000A000900F5CFEEFF012EFBD70A0112BFF0
:101F5000F28E090E156FAB0E146F140E166F1B0E5A
:101F6000176F196B180E186F010E1A6F000172DDD2
:101F700029D10901352D38D00A01136B180E126FC3
:101F8000156B1E0E146F176B720E166F196B390ED0
:101F9000186F1A6B000157EC09F0090EEA6EC30EB8
:101FA000E96EF2CF12FAF29E190E016EF76A000E78
:101FB000EBEC00F00A000900F5CFEEFF012EFBD795
:101FC0000A0112BFF28E090E156FC30E146F140EA4
:101FD000166F1B0E176F196B180E186F010E1A6F04
:101FE000000138DDEFD00901362D38D00A01136B1E
:101FF000180E126F156B1E0E146F176B720E166F84
:10200000196B390E186F1A6B000157EC09F0090EA5
:10201000EA6EDC0EE96EF2CF12FAF29E0F0E016E3E
:10202000F76A000E07EC01F00A000900F5CFEEFF99
:10203000012EFBD70A0112BFF28E090E156FDC0EBE
:10204000146F140E166F1B0E176F196B180E186F86
:10205000010E1A6F0001FEDCB5D00901372D2DD01D
:102060000A01136B180E126F156B1E0E146F176B8F
:10207000720E166F196B390E186F1A6B000157EC40
:1020800009F0540E0901EB6F530EEC6F4D0EED6F1E
:10209000530EEE6FEF6B090E0A01156FEB0E146F06
:1020A000140E166F1B0E176F196B180E186F010E9A
:1020B0001A6F0001CFDC86D00901382D38D00A0113
:1020C000136B180E126F156B1E0E146F176B720EBA
:1020D000166F196B390E186F1A6B000157EC09F067
:1020E000090EEA6EF00EE96EF2CF12FAF29E120EAF
:1020F000016EF76A000E1EEC01F00A000900F5CF30
:10210000EEFF012EFBD70A0112BFF28E090E156FEA
:10211000F00E146F140E166F1B0E176F196B180E3E
:10212000186F010E1A6F000195DC4CD009010A0EE0
:10213000EA6E020EE96EF2CF12FAF29E100E016EF6
:10214000F76A000E000136EC01F00A000900F5CF35
:10215000EEFF012EFBD70A0112BFF28E0A0E156F99
:10216000020E146F140E166F110E176F196B180EE6
:10217000186F010E1A6F00016DDC0A0EEA6E020E76
:10218000E96EF2CF12FAF29E0F0E016EF76A000EA0
:102190004DEC01F00A000900F5CFEEFF012EFBD750
:1021A0000A0112BFF28E0A0E156F020E146F140E82
:1021B000166F1B0E176F196B180E186F010E1A6F22
:1021C000000148DC45EC0AF01CEF11F00A01136B2A
:1021D0000E0E126F156B070E146F176B720E166FC3
:1021E000196B390E186F1A6B000157EC09F00901D1
:1021F000686B0E0E676F6A6B070E696F6C6B720E01
:102200006B6F6E6B3A0E6D6F010E6F6F0001FDEC20
:102210000BF00901686B0F0E676F6A6B080E696F30
:102220006C6B730E6B6F6E6B3B0E6D6F010E6F6F91
:102230000001FDEC0BF04FD4EEEF3DF0010E090173
:1022400072257B6F000E73217C6F010E765D7D6FB2
:10225000000E77597E6F7CC91CFA7BC91BFA75C9C1
:102260001EFA74C91DFAE8CF20FA7DC91FFA75C994
:1022700022FA74C921FA7AC923FA0001ABEC08F0FA
:10228000010E090174257B6F000E75217C6F010E14
:10229000785D7D6F000E79597E6F73C91CFA72C923
:1022A0001BFA7CC91EFA7BC91DFA73C920FA72C9D0
:1022B0001FFAE8CF22FA7DC921FA7AC923FA000170
:1022C000ABEC08F0010E090172257B6F000E732143
:1022D0007C6F010E765D7D6F000E77597E6F7CC935
:1022E0001CFA7BC91BFA79C91EFA78C91DFAE8CF16
:1022F00020FA7DC91FFA79C922FA78C921FA7AC968
:1023000023FA0001ABEC08F0010E090174257B6F84
:10231000000E75217C6F010E785D7D6F000E79597E
:102320007E6F77C91CFA76C91BFA7CC91EFA7BC975
:102330001DFA77C920FA76C91FFAE8CF22FA7DC9BB
:1023400021FA7AC923FA0001ABEC08F0000C0A016B
:10235000136B010E126F156B146F176B820E166FD5
:10236000196B400E186F1A6B000157EC09F0090E3B
:10237000EA6E5A0EE96EF2CF72F9F29E140E016EF9
:10238000F76A000EDCEC01F00A000900F5CFEEFF61
:10239000012EFBD7090172BFF28E090E0A01156FDB
:1023A0005A0E146F0A0E166F030E176F196B180E64
:1023B000186F010E1A6F00012AEC0DF00A011C6B58
:1023C000010E1B6F1E6B0E0E1D6F206B800E1F6F9C
:1023D000226B0E0E216F010E236F0001ABEC08F093
:1023E000090EEA6E5A0EE96EF2CF72F9F29E180EDD
:1023F000016EF76A000EF5EC01F00A000900F5CF56
:10240000EEFF012EFBD7090172BFF28E090E0A0101
:10241000156F5A0E146F0E0E166F1E0E176F196B76
:10242000180E186F010E1A6F00012AEC0DF0090E3C
:10243000EA6E5A0EE96EF2CF72F9F29E160E016E36
:10244000F76A000E10EC02F00A000900F5CFEEFF6B
:10245000012EFBD7090172BFF28E090E0A01156F1A
:102460005A0E146F140E166F176F196B180E186F23
:10247000010E1A6F00012AEC0DF00901736B0E0EAC
:10248000726F756B300E746F776B720E766F796B3F
:102490003F0E786F010E7A6F0001D0DE45EC0AF036
:1024A00003EF3EF009015A51070B006E5A31016EDD
:1024B000013201321F0E011601505B25E96E000E3C
:1024C0005C21EA6EEFCF01F0002A01D00132002E2C
:1024D000FDD70001000C176AF2BE178EF29E55C898
:1024E00047FA010E0A01486F0F0E4A6F920E496FAC
:1024F00000014FEC03F017BEF28E55C85AF90F0ECB
:1025000009015C6F800E5B6F0001CCDF01A05CD025
:10251000176AF2BE178EF29E57C847FA010E0A01DB
:10252000486F0F0E4A6F920E496F00014FEC03F097
:1025300017BEF28E57C85AF90F0E09015C6F800E54
:102540005B6F0001AFDF01A03FD0176AF2BE178EAC
:10255000F29E55C847FA010E0A01486F0F0E4A6FE6
:10256000920E496F00014FEC03F017BEF28E55C872
:102570005AF90F0E09015C6F800E5B6F000192DF4C
:1025800001A022D0176AF2BE178EF29E57C847FAF2
:10259000010E0A01486F0F0E4A6F920E496F00013B
:1025A0004FEC03F017BEF28E57C85AF90F0E09010F
:1025B0005C6F800E5B6F000175DF01A005D0010E1E
:1025C00009013A6F0001C1D7010E0901486F0001EE
:1025D00005EF3EF009014B5313E10A01136B660E40
:1025E000126F156B1E0E146F176B800E166F196B22
:1025F0002A0E186F1A6B000157EC09F0A8D00901D8
:102600004B51010A000105E0030A2BE0010A51E0E9
:1026100078D0090EEA6E5A0EE96EF2CF78F9F29E82
:102620001A0E016EF76A000E2AEC02F00A00090089
:10263000F5CFEEFF012EFBD7090178BFF28E090E10
:102640000A01156F5A0E146F0E0E166F1E0E176FBD
:10265000196B180E186F010E1A6F00012AEC0DF09D
:1026600050D0090EEA6E5A0EE96EF2CF78F9F29E5A
:102670001C0E016EF76A000E46EC02F00A0009001B
:10268000F5CFEEFF012EFBD7090178BFF28E090EC0
:102690000A01156F5A0E146F0E0E166F1E0E176F6D
:1026A000196B180E186F010E1A6F00012AEC0DF04D
:1026B00028D0090EEA6E5A0EE96EF2CF78F9F29E32
:1026C0001E0E016EF76A000E63EC02F00A000900AC
:1026D000F5CFEEFF012EFBD7090178BFF28E090E70
:1026E0000A01156F5A0E146F0E0E166F1E0E176F1D
:1026F000196B180E186F010E1A6F00012AEC0DF0FD
:1027000000D0090EEA6E5A0EE96EF2CF78F9F29E09
:10271000160E016EF76A000E10EC02F00A000900B6
:10272000F5CFEEFF012EFBD7090178BFF28E090E1F
:102730000A01156F5A0E146F140E166F176F196B6E
:10274000180E186F010E1A6F00012AEC0DF045ECFF
:102750000AF056EF3EF0016A026A006A036A090154
:102760006A5102E1695118E0100E6B6FD89067371B
:102770006837003603366A51035C02E16951005C38
:1027800007E36951005ED8A003066A51035ED88052
:10279000013602366B2FEAD70001000C006A016A8D
:1027A000026A036A09016F6B706B716B726B6E5119
:1027B0006D116C116B112CE0200E736FD890673780
:1027C000683769376A376F377037713772376E51CC
:1027D000725D08E16D51715D05E16C51705D02E162
:1027E0006B516F5D0FE36B516F5F6C51D8A06C3D07
:1027F000705F6D51D8A06D3D715F6E51D8A06E3D78
:10280000725FD8800036013602360336732FD6D772
:10281000090EEA6E6F0EE96E0001000C66C968F9D8
:1028200065C967F9030E09016A6FE80E696F000157
:1028300092DF02C075F801C074F866C968F965C90D
:1028400067F9030E09016A6FE80E696F000183DF03
:1028500000C06CF8080103C06DF86E6B6F6B6FC839
:102860006AF96EC869F96DC868F96CC867F9090139
:102870006E6B6D6B6C6B640E6B6F00018FDF01C054
:1028800073F800C072F86FC86AF96EC869F96DC84C
:1028900068F96CC867F909016E6B6D6B6C6B640E3F
:1028A0006B6F00017BDFEFCF6CF8ECCF6DF8ECCFF6
:1028B0006EF8ECCF6FF86FC86AF96EC869F96DC829
:1028C00068F96CC867F909016E6B6D6B6C6B0A0E69
:1028D0006B6F000163DF00C071F86FC86AF96EC8E2
:1028E00069F96DC868F96CC867F909016E6B6D6BA1
:1028F0006C6B0A0E6B6F000151DFEFCF70F8000CAC
:102900000A01136B0E0E126F156B300E146F176BDE
:10291000720E166F196B3F0E186F1A6B000157EC91
:1029200009F00901736B0E0E726F756B300E746FC8
:10293000776B720E766F796B3F0E786F010E7A6F40
:1029400000017CDC0901666BFDC865F9000166DFEA
:102950000E0E0801FD2509015A6F0A01136B0E0EB8
:10296000126F156B310E146F176B5AC916FA196B6B
:102970003E0E186F010E1A6F000157EC09F045EC7E
:102980000AF05BEF3EF009013B530BE13D510208B9
:1029900002E1010E3C6F3D51020802E2010E3E6F62
:1029A0000DD03B5102080AE13D51020802E1020E3E
:1029B0003C6F3D51020802E2020E3E6F00010AEF39
:1029C0001CF00901686B190E676F6A6B150E696F51
:1029D0006C6B680E6B6F6E6B2B0E6D6F010E6F6FF5
:1029E0000001FDEC0BF00901686B180E676F6A6B54
:1029F000140E696F6C6B690E6B6F6E6B2C0E6D6FC6
:102A0000010E6F6F0001FDEC0BF00A011C6B400E14
:102A10001B6F1E6B0C0E1D6F206B400E1F6F226B09
:102A20000C0E216F010E236F0001ABEC08F00A01C0
:102A30001C6B3F0E1B6F1E6B0D0E1D6F206B410E2E
:102A40001F6F226B0D0E216F010E236F0001ABEC87
:102A500008F00A011C6B3E0E1B6F1E6B0E0E1D6FE5
:102A6000206B420E1F6F226B0E0E216F010E236F23
:102A70000001ABEC08F00A011C6B3D0E1B6F1E6BD6
:102A80000F0E1D6F206B430E1F6F226B0F0E216FF9
:102A9000010E236F0001ABEC08F00A011C6B3C0E29
:102AA0001B6F1E6B100E1D6F206B440E1F6F226B71
:102AB000100E216F010E236F0001ABEC08F00A012C
:102AC0001C6B3B0E1B6F1E6B110E1D6F206B450E9A
:102AD0001F6F226B110E216F010E236F0001ABECF3
:102AE00008F00A011C6B400E1B6F1E6B340E1D6F2D
:102AF000206B400E1F6F226B340E216F010E236F6F
:102B00000001ABEC08F00A011C6B3F0E1B6F1E6B43
:102B1000330E1D6F206B410E1F6F226B330E216F22
:102B2000010E236F0001ABEC08F00A011C6B3E0E96
:102B30001B6F1E6B320E1D6F206B420E1F6F226BC0
:102B4000320E216F010E236F0001ABEC08F00A0179
:102B50001C6B3D0E1B6F1E6B310E1D6F206B430EE9
:102B60001F6F226B310E216F010E236F0001ABEC42
:102B700008F00A011C6B3C0E1B6F1E6B300E1D6FA4
:102B8000206B440E1F6F226B300E216F010E236FDE
:102B90000001ABEC08F00A011C6B3B0E1B6F1E6BB7
:102BA0002F0E1D6F206B450E1F6F226B2F0E216F96
:102BB000010E236F0001ABEC08F00A011C6B150E2F
:102BC0001B6F1E6B1B0E1D6F206B150E1F6F226B74
:102BD000250E216F010E236F0001ABEC08F00A01F6
:102BE0001C6B140E1B6F1E6B1C0E1D6F206B140EC6
:102BF0001F6F226B240E216F010E236F0001ABECBF
:102C000008F00A011C6B130E1B6F1E6B1D0E1D6F4F
:102C1000206B130E1F6F226B230E216F010E236F8B
:102C20000001ABEC08F00A011C6B120E1B6F1E6B4F
:102C30001E0E1D6F206B120E1F6F226B220E216F56
:102C4000010E236F0001ABEC08F00A011C6B110EA2
:102C50001B6F1E6B1F0E1D6F206B110E1F6F226BE3
:102C6000210E216F010E236F0001ABEC08F00A0169
:102C70001C6B100E1B6F1E6B200E1D6F206B100E39
:102C80001F6F226B200E216F010E236F0001ABEC32
:102C900008F00A011C6B6C0E1B6F1E6B1B0E1D6F68
:102CA000206B6C0E1F6F226B250E216F010E236FA0
:102CB0000001ABEC08F00A011C6B6D0E1B6F1E6B64
:102CC0001C0E1D6F206B6D0E1F6F226B240E216F6B
:102CD000010E236F0001ABEC08F00A011C6B6E0EB5
:102CE0001B6F1E6B1D0E1D6F206B6E0E1F6F226BF8
:102CF000230E216F010E236F0001ABEC08F00A01D7
:102D00001C6B6F0E1B6F1E6B1E0E1D6F206B6F0EEC
:102D10001F6F226B220E216F010E236F0001ABEC9F
:102D200008F00A011C6B700E1B6F1E6B1F0E1D6FCF
:102D3000206B700E1F6F226B210E216F010E236F0F
:102D40000001ABEC08F00A011C6B710E1B6F1E6BCF
:102D5000200E1D6F206B710E1F6F226B200E216FD6
:102D6000010E236F0001ABEC08F0010E09013D5D7F
:102D7000FA0FD8B0E8EF1BF0060F0001EDEF1BF0E3
:102D8000720E09015A6F740E5B6F640E5C6F5D6B9F
:102D9000090E0A01156F5A0E146F740E166F1B0E72
:102DA000176F196B180E186F010E1A6F00012AECBD
:102DB0000DF0720E09015A6F740E5B6F640E5C6F3A
:102DC0005D6B090E0A01156F5A0E146F010E166F16
:102DD0001B0E176F196B180E186F010E1A6F00017A
:102DE0002AEC0DF0090EEA6E5A0EE96EF2CF67F981
:102DF000F29E0A0E016EF76A000E64EC01F00A0002
:102E00000900F5CFEEFF012EFBD7090167BFF28E57
:102E1000090E0A01156F5A0E146F240E166F010E5B
:102E2000176F196B180E186F010E1A6F00012AEC3C
:102E30000DF0090EEA6E5A0EE96EF2CF67F9F29EB6
:102E4000090E016EF76A000E78EC01F00A00090025
:102E5000F5CFEEFF012EFBD7090167BFF28E090EF9
:102E60000A01156F5A0E146F260E166F1B0E176F80
:102E7000196B180E186F010E1A6F00012AEC0DF075
:102E8000090EEA6E5A0EE96EF2CF67F9F29E070E4E
:102E9000016EF76A000E8CEC01F00A000900F5CF14
:102EA000EEFF012EFBD7090167BFF28E090E0A0162
:102EB000156F5A0E146F2B0E166F360E176F196B97
:102EC000180E186F010E1A6F00012AEC0DF009019F
:102ED000E8EF1BF0450E09015A6F5B6B090E0A0102
:102EE000156F5A0E146F740E166F0C0E176F196B48
:102EF000180E186F010E1A6F00012AEC0DF0540E17
:102F000009015A6F5B6B090E0A01156F5A0E146F97
:102F1000740E166F160E176F196B180E186F010EC0
:102F20001A6F00012AEC0DF0410E09015A6F5B6B1C
:102F3000090E0A01156F5A0E146F740E166F200ECB
:102F4000176F196B180E186F010E1A6F00012AEC1B
:102F50000DF0530E09015A6F5B6B090E0A01156FD4
:102F60005A0E146F740E166F2A0E176F196B180E07
:102F7000186F010E1A6F00012AEC0DF0440E0901C2
:102F80005A6F5B6B090E0A01156F5A0E146F070E0C
:102F9000166F0C0E176F196B180E186F010E1A6F43
:102FA00000012AEC0DF0410E09015A6F5B6B090E0E
:102FB0000A01156F5A0E146F070E166F160E176F53
:102FC000196B180E186F010E1A6F00012AEC0DF024
:102FD000530E09015A6F5B6B090E0A01156F5A0EE9
:102FE000146F070E166F200E176F196B180E186FDF
:102FF000010E1A6F00012AEC0DF0480E09015A6FFC
:103000005B6B090E0A01156F5A0E146F070E166FCF
:103010002A0E176F196B180E186F010E1A6F000128
:103020002AEC0DF0090EEA6E5A0EE96EF2CF67F93E
:10303000F29E090E016EF76A000E78EC01F00A00AC
:103040000900F5CFEEFF012EFBD7090167BFF28E15
:10305000090E0A01156F5A0E146F260E166F010E17
:10306000176F196B180E186F010E1A6F00012AECFA
:103070000DF0090EEA6E5A0EE96EF2CF67F9F29E74
:10308000070E016EF76A000E8CEC01F00A000900D1
:10309000F5CFEEFF012EFBD7090167BFF28E090EB7
:1030A0000A01156F5A0E146F2D0E166F1B0E176F37
:1030B000196B180E186F010E1A6F00012AEC0DF033
:1030C000090EEA6E5A0EE96EF2CF67F9F29E0D0E06
:1030D000016EF76A000E9FEC01F00A000900F5CFBF
:1030E000EEFF012EFBD7090167BFF28E090E0A0120
:1030F000156F5A0E146F1B0E166F360E176F196B65
:10310000180E186F010E1A6F00012AEC0DF009015C
:103110005FD30A01136B1A0E126F156B160E146F24
:10312000176B670E166F196B2A0E186F1A6B00015A
:1031300057EC09F00A01136B1A0E126F156B360E5D
:10314000146F176B670E166F196B4A0E186F1A6B98
:10315000000157EC09F00A01136B1A0E126F156B80
:10316000010E146F176B670E166F196B0B0E186F2D
:103170001A6B000157EC09F0520E09015A6F310E1B
:103180005B6F5C6B090E0A01156F5A0E146F010E0E
:10319000166F1B0E176F196B180E186F010E1A6F32
:1031A00000012AEC0DF0520E09015A6F320E5B6FCE
:1031B0005C6B090E0A01156F5A0E146F760E166FAE
:1031C0001B0E176F196B180E186F010E1A6F000186
:1031D0002AEC0DF0090EEA6E5A0EE96EF2CF67F98D
:1031E000F29E070E016EF76A000E8CEC01F00A00E9
:1031F0000900F5CFEEFF012EFBD7090167BFF28E64
:10320000090E0A01156F5A0E146F2B0E166F010E60
:10321000176F196B180E186F010E1A6F00012AEC48
:103220000DF0090EEA6E5A0EE96EF2CF67F9F29EC2
:103230000D0E016EF76A000E9FEC01F00A00090006
:10324000F5CFEEFF012EFBD7090167BFF28E090E05
:103250000A01156F5A0E146F1B0E166F176F196B3C
:10326000180E186F010E1A6F00012AEC0DF0090EEE
:10327000EA6E5A0EE96EF2CF67F9F29E080E016E01
:10328000F76A000EB5EC01F00A000900F5CFEEFF79
:10329000012EFBD7090167BFF28E090E0A01156FD7
:1032A0005A0E146F2B0E166F360E176F196B180E01
:1032B000186F010E1A6F00012AEC0DF0090188D277
:1032C0000A01136B1A0E126F156B160E146F176B23
:1032D000670E166F196B2A0E186F1A6B000157ECE8
:1032E00009F00A01136B1A0E126F156B360E146F6C
:1032F000176B670E166F196B4A0E186F1A6B000169
:1033000057EC09F00A01136B1A0E126F156B010EC0
:10331000146F176B670E166F196B0B0E186F1A6B05
:10332000000157EC09F0520E09015A6F310E5B6F24
:103330005C6B090E0A01156F5A0E146F010E166FA1
:103340001B0E176F196B180E186F010E1A6F000104
:103350002AEC0DF0520E09015A6F320E5B6F5C6B56
:10336000090E0A01156F5A0E146F760E166F1B0E9A
:10337000176F196B180E186F010E1A6F00012AECE7
:103380000DF0090EEA6E5A0EE96EF2CF67F9F29E61
:103390000D0E016EF76A000E9FEC01F00A000900A5
:1033A000F5CFEEFF012EFBD7090167BFF28E090EA4
:1033B0000A01156F5A0E146F1B0E166F010E176F50
:1033C000196B180E186F010E1A6F00012AEC0DF020
:1033D000090EEA6E5A0EE96EF2CF67F9F29E080EF8
:1033E000016EF76A000EB5EC01F00A000900F5CF96
:1033F000EEFF012EFBD7090167BFF28E090E0A010D
:10340000156F5A0E146F2B0E166F1B0E176F196B5C
:10341000180E186F010E1A6F00012AEC0DF0090E3C
:10342000EA6E5A0EE96EF2CF67F9F29E0A0E016E4D
:10343000F76A000EC8EC01F00A000900F5CFEEFFB4
:10344000012EFBD7090167BFF28E090E0A01156F25
:103450005A0E146F230E166F360E176F196B180E57
:10346000186F010E1A6F00012AEC0DF00901B0D19E
:103470000A01136B1A0E126F156B160E146F176B71
:10348000670E166F196B2A0E186F1A6B000157EC36
:1034900009F00A01136B1A0E126F156B360E146FBA
:1034A000176B670E166F196B4A0E186F1A6B0001B7
:1034B00057EC09F00A01136B1A0E126F156B010E0F
:1034C000146F176B670E166F196B0B0E186F1A6B54
:1034D000000157EC09F0520E09015A6F310E5B6F73
:1034E0005C6B090E0A01156F5A0E146F010E166FF0
:1034F0001B0E176F196B180E186F010E1A6F000153
:103500002AEC0DF0520E09015A6F320E5B6F5C6BA4
:10351000090E0A01156F5A0E146F760E166F1B0EE8
:10352000176F196B180E186F010E1A6F00012AEC35
:103530000DF0090EEA6E5A0EE96EF2CF67F9F29EAF
:10354000080E016EF76A000EB5EC01F00A000900E2
:10355000F5CFEEFF012EFBD7090167BFF28E090EF2
:103560000A01156F5A0E146F2B0E166F010E176F8E
:10357000196B180E186F010E1A6F00012AEC0DF06E
:10358000090EEA6E5A0EE96EF2CF67F9F29E0A0E44
:10359000016EF76A000EC8EC01F00A000900F5CFD1
:1035A000EEFF012EFBD7090167BFF28E090E0A015B
:1035B000156F5A0E146F230E166F1B0E176F196BB3
:1035C000180E186F010E1A6F00012AEC0DF0090E8B
:1035D000EA6E5A0EE96EF2CF67F9F29E0A0E016E9C
:1035E000F76A000E64EC01F00A000900F5CFEEFF67
:1035F000012EFBD7090167BFF28E090E0A01156F74
:103600005A0E146F240E166F360E176F196B180EA4
:10361000186F010E1A6F00012AEC0DF00901D8D0C5
:103620000A01136B1A0E126F156B160E146F176BBF
:10363000670E166F196B2A0E186F1A6B000157EC84
:1036400009F00A01136B1A0E126F156B360E146F08
:10365000176B670E166F196B4A0E186F1A6B000105
:1036600057EC09F00A01136B1A0E126F156B010E5D
:10367000146F176B670E166F196B0B0E186F1A6BA2
:10368000000157EC09F0520E09015A6F310E5B6FC1
:103690005C6B090E0A01156F5A0E146F010E166F3E
:1036A0001B0E176F196B180E186F010E1A6F0001A1
:1036B0002AEC0DF0520E09015A6F320E5B6F5C6BF3
:1036C000090E0A01156F5A0E146F760E166F1B0E37
:1036D000176F196B180E186F010E1A6F00012AEC84
:1036E0000DF0090EEA6E5A0EE96EF2CF67F9F29EFE
:1036F0000A0E016EF76A000EC8EC01F00A0009001C
:10370000F5CFEEFF012EFBD7090167BFF28E090E40
:103710000A01156F5A0E146F230E166F010E176FE4
:10372000196B180E186F010E1A6F00012AEC0DF0BC
:10373000090EEA6E5A0EE96EF2CF67F9F29E0A0E92
:10374000016EF76A000E64EC01F00A000900F5CF83
:10375000EEFF012EFBD7090167BFF28E090E0A01A9
:10376000156F5A0E146F240E166F1B0E176F196B00
:10377000180E186F010E1A6F00012AEC0DF0090ED9
:10378000EA6E5A0EE96EF2CF67F9F29E090E016EEB
:10379000F76A000E78EC01F00A000900F5CFEEFFA1
:1037A000012EFBD7090167BFF28E090E0A01156FC2
:1037B0005A0E146F260E166F360E176F196B180EF1
:1037C000186F010E1A6F00012AEC0DF0090100D0EC
:1037D000000145EC0AF023EF1EF0F2CF0DF0F29E4F
:1037E000E824F76AF736050FF66E380EF722000E5A
:1037F000F86EFB6E0A00F550FA6E0800F5500DBE2B
:10380000F28EF96E802DD42E1231C03270342036F3
:10381000C3EF14F009013B2D8FD03E6B046B176A88
:10382000F2BE178EF29E55C847FA010E0A01486F84
:103830000F0E4A6F920E496F00014FEC03F017BE56
:10384000F28E55C85AF90F0E09015C6F800E5B6F3E
:10385000000152EC12F001A029D0176AF2BE178EB7
:10386000F29E55C847FA010E0A01486F0F0E4A6FC3
:10387000920E496F00014FEC03F017BEF28E55C84F
:103880005AF90F0E09015C6F800E5B6F000152EC5C
:1038900012F001B0E2D709013D51010802E23D07F3
:1038A00002D0060E3D6F010E3F6F0001176AF2BE97
:1038B000178EF29E56C847FA010E0A01486F0F0E86
:1038C0004A6F920E496F00014FEC03F017BEF28E63
:1038D00056C85AF90F0E09015C6F800E5B6F00012C
:1038E00052EC12F001A029D0176AF2BE178EF29E98
:1038F00056C847FA010E0A01486F0F0E4A6F920E22
:10390000496F00014FEC03F017BEF28E56C85AF90A
:103910000F0E09015C6F800E5B6F000152EC12F01C
:1039200001B0E2D709013D51050802E33D2B02D069
:10393000010E3D6F010E3F6F000109013B2D01D0CB
:10394000DDD0010E046F176AF2BE178EF29E5AC8C0
:1039500047FA010E0A01486F0F0E4A6F920E496F27
:1039600000014FEC03F017BEF28E5AC85AF90F0E41
:1039700009015C6F800E5B6F000152EC12F001A038
:1039800025D0176AF2BE178EF29E5AC847FA010E6A
:103990000A01486F0F0E4A6F920E496F00014FECFB
:1039A00003F017BEF28E5AC85AF90F0E09015C6F68
:1039B000800E5B6F000152EC12F001B0E2D70901FA
:1039C0003D51020802E0020E516F0001176AF2BE7B
:1039D000178EF29E59C847FA010E0A01486F0F0E62
:1039E0004A6F920E496F00014FEC03F017BEF28E42
:1039F00059C85AF90F0E09015C6F800E5B6F000108
:103A000052EC12F001B004D009013A2D77D0000138
:103A1000176AF2BE178EF29E59C847FA010E0A01C4
:103A2000486F0F0E4A6F920E496F00014FEC03F082
:103A300017BEF28E59C85AF90F0E09015C6F800E3D
:103A40005B6F000152EC12F001B0E2D709013A2D90
:103A500003D00001DDD709013D51020806E13D51C7
:103A6000020844E13C51020841E1065303E10551DB
:103A700032083CE20A01136B010E126F156B146FD2
:103A8000176B820E166F196B400E186F1A6B0001C0
:103A900057EC09F00901046B010E036F176AF2BEBF
:103AA000178EF29E5DC847FA010E0A01486F0F0E8D
:103AB0004A6F890E496F00014FEC03F017BEF28E7A
:103AC000176AF2BE178EF29E5DC847FA0A01486B6C
:103AD0000F0E4A6F920E496F00014FEC03F017BEB4
:103AE000F28E010E09014C6F030E516F3D51020819
:103AF00005E13C2D03D0020E516F046B176AF2BE34
:103B0000178EF29E58C847FA010E0A01486F0F0E31
:103B10004A6F920E496F00014FEC03F017BEF28E10
:103B200058C85AF90F0E09015C6F800E5B6F0001D7
:103B300052EC12F001A027D0176AF2BE178EF29E47
:103B400058C847FA010E0A01486F0F0E4A6F920ECD
:103B5000496F00014FEC03F017BEF28E58C85AF9B6
:103B60000F0E09015C6F800E5B6F000152EC12F0CA
:103B700001B0E2D709013B5302E03B0701D03B6BA8
:103B8000010E3F6F0001176AF2BE178EF29E57C8F2
:103B900047FA010E0A01486F0F0E4A6F920E496FE5
:103BA00000014FEC03F017BEF28E57C85AF90F0E02
:103BB00009015C6F800E5B6F000152EC12F001A0F6
:103BC0002AD0176AF2BE178EF29E57C847FA010E26
:103BD0000A01486F0F0E4A6F920E496F00014FECB9
:103BE00003F017BEF28E57C85AF90F0E09015C6F29
:103BF000800E5B6F000152EC12F001B0E2D70901B8
:103C00003B51010801E33B2B3B51020802E2020E4B
:103C10003B6F010E3F6F09013F2D16D00A01136B58
:103C2000010E126F156B146F176B820E166F196BE6
:103C3000400E186F1A6B000157EC09F009013F6B39
:103C40000001E1EF14F00901000174EF3EF00901F9
:103C50003B51000A000104E0020AD8B4E3D0C4D109
:103C600009014F2DDDD04F6B395369E10A011C6BFF
:103C7000150E1B6F1E6B1B0E1D6F206B150E1F6F1D
:103C8000226B250E216F236B0001ABEC08F00A01BB
:103C90001C6B140E1B6F1E6B1C0E1D6F206B140E05
:103CA0001F6F226B240E216F236B0001ABEC08F019
:103CB0000A011C6B130E1B6F1E6B1D0E1D6F206BFC
:103CC000130E1F6F226B230E216F236B0001ABECD1
:103CD00008F00A011C6B120E1B6F1E6B1E0E1D6F6F
:103CE000206B120E1F6F226B220E216F236B0001BF
:103CF000ABEC08F00A011C6B110E1B6F1E6B1F0E44
:103D00001D6F206B110E1F6F226B210E216F236B15
:103D10000001ABEC08F00A011C6B100E1B6F1E6B50
:103D2000200E1D6F206B100E1F6F226B200E216F57
:103D3000236B0001ABEC08F00901392B6ED00A01AE
:103D40001C6B150E1B6F1E6B1B0E1D6F206B150E53
:103D50001F6F226B250E216F010E236F0001ABEC4C
:103D600008F00A011C6B140E1B6F1E6B1C0E1D6FDE
:103D7000206B140E1F6F226B240E216F010E236F18
:103D80000001ABEC08F00A011C6B130E1B6F1E6BDD
:103D90001D0E1D6F206B130E1F6F226B230E216FE4
:103DA000010E236F0001ABEC08F00A011C6B120E30
:103DB0001B6F1E6B1E0E1D6F206B120E1F6F226B72
:103DC000220E216F010E236F0001ABEC08F00A01F7
:103DD0001C6B110E1B6F1E6B1F0E1D6F206B110EC7
:103DE0001F6F226B210E216F010E236F0001ABECC0
:103DF00008F00A011C6B100E1B6F1E6B200E1D6F4E
:103E0000206B100E1F6F226B200E216F010E236F8F
:103E10000001ABEC08F00901396B000145EC0AF038
:103E20000001E2D009014F2DDDD04F6B395369E11C
:103E30000A011C6B6C0E1B6F1E6B1B0E1D6F206B23
:103E40006C0E1F6F226B250E216F236B0001ABECF4
:103E500008F00A011C6B6D0E1B6F1E6B1C0E1D6F94
:103E6000206B6D0E1F6F226B240E216F236B0001E0
:103E7000ABEC08F00A011C6B6E0E1B6F1E6B1D0E67
:103E80001D6F206B6E0E1F6F226B230E216F236B35
:103E90000001ABEC08F00A011C6B6F0E1B6F1E6B70
:103EA0001E0E1D6F206B6F0E1F6F226B220E216F77
:103EB000236B0001ABEC08F00A011C6B700E1B6F4A
:103EC0001E6B1F0E1D6F206B700E1F6F226B210E5D
:103ED000216F236B0001ABEC08F00A011C6B710E23
:103EE0001B6F1E6B200E1D6F206B710E1F6F226BE0
:103EF000200E216F236B0001ABEC08F00901392B78
:103F00006ED00A011C6B6C0E1B6F1E6B1B0E1D6F9F
:103F1000206B6C0E1F6F226B250E216F010E236F1D
:103F20000001ABEC08F00A011C6B6D0E1B6F1E6BE1
:103F30001C0E1D6F206B6D0E1F6F226B240E216FE8
:103F4000010E236F0001ABEC08F00A011C6B6E0E32
:103F50001B6F1E6B1D0E1D6F206B6E0E1F6F226B75
:103F6000230E216F010E236F0001ABEC08F00A0154
:103F70001C6B6F0E1B6F1E6B1E0E1D6F206B6F0E6A
:103F80001F6F226B220E216F010E236F0001ABEC1D
:103F900008F00A011C6B700E1B6F1E6B1F0E1D6F4D
:103FA000206B700E1F6F226B210E216F010E236F8D
:103FB0000001ABEC08F00A011C6B710E1B6F1E6B4D
:103FC000200E1D6F206B710E1F6F226B200E216F54
:103FD000010E236F0001ABEC08F00901396B000101
:103FE00045EC0AF0000100D076EF3EF00901625185
:103FF000016A615D03E261C900F00CD0006A080E3D
:10400000636F613700366251005CD8B0006E0136D4
:10401000632FF7D70001000C08015F6B5F510108A7
:10402000D8A0C3EF25F009015A51090829E2080177
:104030005F5313E15AC961F90A0E0901626F000169
:10404000D5DF01C060F8120E0801626F190E636FB0
:10405000180E646F130E656F12D05AC961F90A0EFB
:104060000901626F0001C2DF00C060F81A0E08018A
:10407000626F150E636F140E646F1B0E656F09017E
:1040800008016051F60FD8B0C0EF25F00A0F00010B
:10409000DFEF25F0176AF2BE178EF29E62C847FA6C
:1040A0000A01486B0F0E4A6F890E496F00014FECF1
:1040B00003F017BEF28E176AF2BE178EF29E62C828
:1040C00047FA0A01486B0F0E4A6F920E496F0001C2
:1040D0004FEC03F017BEF28E176AF2BE178EF29EF7
:1040E00063C847FA0A01486B0F0E4A6F890E496F81
:1040F00000014FEC03F017BEF28E176AF2BE178E66
:10410000F29E63C847FA0A01486B0F0E4A6F920E7F
:10411000496F00014FEC03F017BEF28E176AF2BE32
:10412000178EF29E64C847FA0A01486B0F0E4A6F59
:10413000890E496F00014FEC03F017BEF28E176A2B
:10414000F2BE178EF29E64C847FA0A01486B0F0E42
:104150004A6F920E496F00014FEC03F017BEF28ECA
:10416000176AF2BE178EF29E65C847FA0A01486BBD
:104170000F0E4A6F890E496F00014FEC03F017BE16
:10418000F28E176AF2BE178EF29E65C847FA0A01D0
:10419000486B0F0E4A6F920E496F00014FEC03F00F
:1041A00017BEF28E0801C0EF25F0176AF2BE178E17
:1041B000F29E62C847FA010E0A01486F0F0E4A6F5D
:1041C000890E496F00014FEC03F017BEF28E176A9B
:1041D000F2BE178EF29E62C847FA0A01486B0F0EB4
:1041E0004A6F920E496F00014FEC03F017BEF28E3A
:1041F000176AF2BE178EF29E63C847FA0A01486B2F
:104200000F0E4A6F890E496F00014FEC03F017BE85
:10421000F28E176AF2BE178EF29E63C847FA0A0141
:10422000486B0F0E4A6F920E496F00014FEC03F07E
:1042300017BEF28E176AF2BE178EF29E64C847FA56
:104240000A01486B0F0E4A6F890E496F00014FEC4F
:1042500003F017BEF28E176AF2BE178EF29E64C884
:1042600047FA0A01486B0F0E4A6F920E496F000120
:104270004FEC03F017BEF28E176AF2BE178EF29E55
:1042800065C847FA0A01486B0F0E4A6F890E496FDD
:1042900000014FEC03F017BEF28E176AF2BE178EC4
:1042A000F29E65C847FA0A01486B0F0E4A6F920EDC
:1042B000496F00014FEC03F017BEF28E0801C0EF0A
:1042C00025F0176AF2BE178EF29E62C847FA0A01FD
:1042D000486B0F0E4A6F890E496F00014FEC03F0D7
:1042E00017BEF28E176AF2BE178EF29E62C847FAA8
:1042F0000A01486B0F0E4A6F920E496F00014FEC96
:1043000003F017BEF28E176AF2BE178EF29E63C8D4
:1043100047FA010E0A01486F0F0E4A6F890E496F66
:1043200000014FEC03F017BEF28E176AF2BE178E33
:10433000F29E63C847FA0A01486B0F0E4A6F920E4D
:10434000496F00014FEC03F017BEF28E176AF2BE00
:10435000178EF29E64C847FA0A01486B0F0E4A6F27
:10436000890E496F00014FEC03F017BEF28E176AF9
:10437000F2BE178EF29E64C847FA0A01486B0F0E10
:104380004A6F920E496F00014FEC03F017BEF28E98
:10439000176AF2BE178EF29E65C847FA0A01486B8B
:1043A0000F0E4A6F890E496F00014FEC03F017BEE4
:1043B000F28E176AF2BE178EF29E65C847FA0A019E
:1043C000486B0F0E4A6F920E496F00014FEC03F0DD
:1043D00017BEF28E0801D4D3176AF2BE178EF29E72
:1043E00062C847FA010E0A01486F0F0E4A6F890E24
:1043F000496F00014FEC03F017BEF28E176AF2BE50
:10440000178EF29E62C847FA0A01486B0F0E4A6F78
:10441000920E496F00014FEC03F017BEF28E176A3F
:10442000F2BE178EF29E63C847FA010E0A01486F6A
:104430000F0E4A6F890E496F00014FEC03F017BE53
:10444000F28E176AF2BE178EF29E63C847FA0A010F
:10445000486B0F0E4A6F920E496F00014FEC03F04C
:1044600017BEF28E176AF2BE178EF29E64C847FA24
:104470000A01486B0F0E4A6F890E496F00014FEC1D
:1044800003F017BEF28E176AF2BE178EF29E64C852
:1044900047FA0A01486B0F0E4A6F920E496F0001EE
:1044A0004FEC03F017BEF28E176AF2BE178EF29E23
:1044B00065C847FA0A01486B0F0E4A6F890E496FAB
:1044C00000014FEC03F017BEF28E176AF2BE178E92
:1044D000F29E65C847FA0A01486B0F0E4A6F920EAA
:1044E000496F00014FEC03F017BEF28E080148D36C
:1044F000176AF2BE178EF29E62C847FA0A01486B2D
:104500000F0E4A6F890E496F00014FEC03F017BE82
:10451000F28E176AF2BE178EF29E62C847FA0A013F
:10452000486B0F0E4A6F920E496F00014FEC03F07B
:1045300017BEF28E176AF2BE178EF29E63C847FA54
:104540000A01486B0F0E4A6F890E496F00014FEC4C
:1045500003F017BEF28E176AF2BE178EF29E63C882
:1045600047FA0A01486B0F0E4A6F920E496F00011D
:104570004FEC03F017BEF28E176AF2BE178EF29E52
:1045800064C847FA010E0A01486F0F0E4A6F890E80
:10459000496F00014FEC03F017BEF28E176AF2BEAE
:1045A000178EF29E64C847FA0A01486B0F0E4A6FD5
:1045B000920E496F00014FEC03F017BEF28E176A9E
:1045C000F2BE178EF29E65C847FA0A01486B0F0EBD
:1045D0004A6F890E496F00014FEC03F017BEF28E4F
:1045E000176AF2BE178EF29E65C847FA0A01486B39
:1045F0000F0E4A6F920E496F00014FEC03F017BE89
:10460000F28E0801BDD2176AF2BE178EF29E62C802
:1046100047FA010E0A01486F0F0E4A6F890E496F63
:1046200000014FEC03F017BEF28E176AF2BE178E30
:10463000F29E62C847FA0A01486B0F0E4A6F920E4B
:10464000496F00014FEC03F017BEF28E176AF2BEFD
:10465000178EF29E63C847FA0A01486B0F0E4A6F25
:10466000890E496F00014FEC03F017BEF28E176AF6
:10467000F2BE178EF29E63C847FA0A01486B0F0E0E
:104680004A6F920E496F00014FEC03F017BEF28E95
:10469000176AF2BE178EF29E64C847FA010E0A012D
:1046A000486F0F0E4A6F890E496F00014FEC03F0FF
:1046B00017BEF28E176AF2BE178EF29E64C847FAD2
:1046C0000A01486B0F0E4A6F920E496F00014FECC2
:1046D00003F017BEF28E176AF2BE178EF29E65C8FF
:1046E00047FA0A01486B0F0E4A6F890E496F0001A5
:1046F0004FEC03F017BEF28E176AF2BE178EF29ED1
:1047000065C847FA0A01486B0F0E4A6F920E496F4F
:1047100000014FEC03F017BEF28E080131D2176A88
:10472000F2BE178EF29E62C847FA0A01486B0F0E5E
:104730004A6F890E496F00014FEC03F017BEF28EED
:10474000176AF2BE178EF29E62C847FA0A01486BDA
:104750000F0E4A6F920E496F00014FEC03F017BE27
:10476000F28E176AF2BE178EF29E63C847FA010EE8
:104770000A01486F0F0E4A6F890E496F00014FEC16
:1047800003F017BEF28E176AF2BE178EF29E63C850
:1047900047FA0A01486B0F0E4A6F920E496F0001EB
:1047A0004FEC03F017BEF28E176AF2BE178EF29E20
:1047B00064C847FA010E0A01486F0F0E4A6F890E4E
:1047C000496F00014FEC03F017BEF28E176AF2BE7C
:1047D000178EF29E64C847FA0A01486B0F0E4A6FA3
:1047E000920E496F00014FEC03F017BEF28E176A6C
:1047F000F2BE178EF29E65C847FA0A01486B0F0E8B
:104800004A6F890E496F00014FEC03F017BEF28E1C
:10481000176AF2BE178EF29E65C847FA0A01486B06
:104820000F0E4A6F920E496F00014FEC03F017BE56
:10483000F28E0801A5D1176AF2BE178EF29E62C8E9
:1048400047FA010E0A01486F0F0E4A6F890E496F31
:1048500000014FEC03F017BEF28E176AF2BE178EFE
:10486000F29E62C847FA0A01486B0F0E4A6F920E19
:10487000496F00014FEC03F017BEF28E176AF2BECB
:10488000178EF29E63C847FA010E0A01486F0F0E99
:104890004A6F890E496F00014FEC03F017BEF28E8C
:1048A000176AF2BE178EF29E63C847FA0A01486B78
:1048B0000F0E4A6F920E496F00014FEC03F017BEC6
:1048C000F28E176AF2BE178EF29E64C847FA010E86
:1048D0000A01486F0F0E4A6F890E496F00014FECB5
:1048E00003F017BEF28E176AF2BE178EF29E64C8EE
:1048F00047FA0A01486B0F0E4A6F920E496F00018A
:104900004FEC03F017BEF28E176AF2BE178EF29EBE
:1049100065C847FA0A01486B0F0E4A6F890E496F46
:1049200000014FEC03F017BEF28E176AF2BE178E2D
:10493000F29E65C847FA0A01486B0F0E4A6F920E45
:10494000496F00014FEC03F017BEF28E080118D139
:10495000176AF2BE178EF29E62C847FA0A01486BC8
:104960000F0E4A6F890E496F00014FEC03F017BE1E
:10497000F28E176AF2BE178EF29E62C847FA0A01DB
:10498000486B0F0E4A6F920E496F00014FEC03F017
:1049900017BEF28E176AF2BE178EF29E63C847FAF0
:1049A0000A01486B0F0E4A6F890E496F00014FECE8
:1049B00003F017BEF28E176AF2BE178EF29E63C81E
:1049C00047FA0A01486B0F0E4A6F920E496F0001B9
:1049D0004FEC03F017BEF28E176AF2BE178EF29EEE
:1049E00064C847FA0A01486B0F0E4A6F890E496F77
:1049F00000014FEC03F017BEF28E176AF2BE178E5D
:104A0000F29E64C847FA0A01486B0F0E4A6F920E75
:104A1000496F00014FEC03F017BEF28E176AF2BE29
:104A2000178EF29E65C847FA010E0A01486F0F0EF5
:104A30004A6F890E496F00014FEC03F017BEF28EEA
:104A4000176AF2BE178EF29E65C847FA0A01486BD4
:104A50000F0E4A6F920E496F00014FEC03F017BE24
:104A6000F28E08018DD0176AF2BE178EF29E62C8D0
:104A700047FA010E0A01486F0F0E4A6F890E496FFF
:104A800000014FEC03F017BEF28E176AF2BE178ECC
:104A9000F29E62C847FA0A01486B0F0E4A6F920EE7
:104AA000496F00014FEC03F017BEF28E176AF2BE99
:104AB000178EF29E63C847FA0A01486B0F0E4A6FC1
:104AC000890E496F00014FEC03F017BEF28E176A92
:104AD000F2BE178EF29E63C847FA0A01486B0F0EAA
:104AE0004A6F920E496F00014FEC03F017BEF28E31
:104AF000176AF2BE178EF29E64C847FA0A01486B25
:104B00000F0E4A6F890E496F00014FEC03F017BE7C
:104B1000F28E176AF2BE178EF29E64C847FA0A0137
:104B2000486B0F0E4A6F920E496F00014FEC03F075
:104B300017BEF28E176AF2BE178EF29E65C847FA4C
:104B4000010E0A01486F0F0E4A6F890E496F00016E
:104B50004FEC03F017BEF28E176AF2BE178EF29E6C
:104B600065C847FA0A01486B0F0E4A6F920E496FEB
:104B700000014FEC03F017BEF28E080101D00801CE
:104B80005F2B0EEF20F009015A51090815E35AC9AD
:104B900061F90A0E626F0001F6EC1FF000C060F8C8
:104BA0001A0E0801626F150E636F140E646F1B0EF0
:104BB000656F010E5F6F09010001EAEF3EF0F2CF71
:104BC0000DF0F29EE824F76AF736E90FF66E4B0E09
:104BD000F722000EF86EFB6E0A00F550FA6E080020
:104BE000F5500DBEF28EF96E9440AA41C242D843F0
:104BF000F04406461E4736485049664A09015A5154
:104C0000600806E20801696B0C0E686F67D0090145
:104C10005A51580806E20801696B0B0E686F5ED0A6
:104C200009015A51500806E20801696B0A0E686FC3
:104C300055D009015A51480806E20801696B090E6E
:104C4000686F4CD009015A51400806E20801696BAF
:104C5000080E686F43D009015A51380806E208016E
:104C6000696B070E686F3AD009015A51300806E2A5
:104C70000801696B060E686F31D009015A51280886
:104C800006E20801696B050E686F28D009015A51C8
:104C9000200806E20801696B040E686F1FD0090145
:104CA0005A51180806E20801696B030E686F16D0A6
:104CB00009015A51100806E20801696B020E686F7B
:104CC0000DD009015A51080806E20801696B010E6E
:104CD000686F04D009010801696B686B0001EEEF91
:104CE0003EF008016A51685D03E16B51695D29E09E
:104CF00000015DEC07F0929A898A96928D820801F4
:104D0000676B666B6751695D18E303E16851665D27
:104D100014E2675303E16651070807E29298898815
:104D200000014EEC07F004D0080100014EEC07F042
:104D30000801662BD8B4672BE5D769C86BF868C83B
:104D40006AF80001F0EF3EF0090163516503F3CF0B
:104D500001F0F4CF00F06603F350002664516503C0
:104D6000F3500020026E00014AEF28F00901635160
:104D7000000813E20A01136B060E126F156B3D0E4D
:104D8000146F176B0E0E166F196B400E186F010E15
:104D90001A6F000157EC09F009016351010813E291
:104DA0000A01136B120E126F156B3B0E146F176B0B
:104DB0001A0E166F196B400E186F010E1A6F000154
:104DC00057EC09F009016351020813E20A01136B61
:104DD0001E0E126F156B390E146F176B260E166FA1
:104DE000196B400E186F010E1A6F000157EC09F095
:104DF00009016351030813E20A01136B2A0E126FB3
:104E0000156B370E146F176B320E166F196B400E41
:104E1000186F010E1A6F000157EC09F00901635178
:104E2000040813E20A01136B360E126F156B340E71
:104E3000146F176B3E0E166F196B400E186F010E34
:104E40001A6F000157EC09F009016351050813E2DC
:104E50000A01136B420E126F156B310E146F176B34
:104E60004A0E166F196B400E186F010E1A6F000173
:104E700057EC09F009016351060813E20A01136BAC
:104E80004E0E126F156B2E0E146F176B560E166F9B
:104E9000196B400E186F010E1A6F000157EC09F0E4
:104EA00009016351070813E20A01136B5A0E126FCE
:104EB000156B2A0E146F176B620E166F196B400E6E
:104EC000186F010E1A6F000157EC09F009016351C8
:104ED000080813E20A01136B660E126F156B260E9B
:104EE000146F176B6E0E166F196B400E186F010E54
:104EF0001A6F000157EC09F009016351090813E228
:104F00000A01136B720E126F156B200E146F176B64
:104F10007A0E166F196B400E186F010E1A6F000192
:104F200057EC09F00901000172EF28F00A01136B38
:104F3000060E126F156B3D0E146F176B0E0E166F6B
:104F4000196B400E186F1A6B000157EC09F00A013B
:104F5000136B120E126F156B3B0E146F176B1A0E3C
:104F6000166F196B400E186F1A6B000157EC09F0A1
:104F70000A01136B1E0E126F156B390E146F176B2F
:104F8000260E166F196B400E186F1A6B000157EC46
:104F900009F00A01136B2A0E126F156B370E146F8E
:104FA000176B320E166F196B400E186F1A6B0001DB
:104FB00057EC09F00A01136B360E126F156B340EA5
:104FC000146F176B3E0E166F196B400E186F1A6B2D
:104FD000000157EC09F00A01136B420E126F156BBA
:104FE000310E146F176B4A0E166F196B400E186F47
:104FF0001A6B000157EC09F00A01136B4E0E126F89
:10500000156B2E0E146F176B560E166F196B400E24
:10501000186F1A6B000157EC09F00A01136B5A0E56
:10502000126F156B2A0E146F176B620E166F196BC9
:10503000400E186F1A6B000157EC09F00A01136B50
:10504000660E126F156B260E146F176B6E0E166FB1
:10505000196B400E186F1A6B000157EC09F00A012A
:10506000136B720E126F156B200E146F176B7A0E86
:10507000166F196B400E186F1A6B000157EC09F090
:1050800060C964F95FC963F90901666B640E656FF5
:1050900000015AD602C064F901C063F902C068F980
:1050A00001C067F962C96AF961C969F9ABEC13F02B
:1050B00002C064F901C063F902C068F901C067F970
:1050C00009016A6B0A0E696F0001ABEC13F0010E67
:1050D00009010124566F000E0220576F56C963F96B
:1050E000000144D645EC0AF0DAEF33F009016151D2
:1050F000F60FD8B08BD30A0F000109EF2CF00A018C
:10510000136B020E126F156B0D0E146F176B180ECA
:10511000166F196B130E186F010E1A6F000157EC02
:1051200009F00A01136B110E126F156B0D0E146F3F
:10513000176B180E166F196B210E186F010E1A6F70
:10514000000157EC09F00A01136B110E126F156B79
:105150001B0E146F176B180E166F196B2F0E186F2E
:10516000010E1A6F000157EC09F00A01136B020ED1
:10517000126F156B290E146F176B180E166F196BC3
:105180002F0E186F010E1A6F000157EC09F00A017B
:10519000136B020E126F156B1B0E146F176B090E3B
:1051A000166F196B2F0E186F010E1A6F000157EC56
:1051B00009F00A01136B020E126F156B0D0E146FBE
:1051C000176B090E166F196B210E186F010E1A6FEF
:1051D000000157EC09F0090119D30A01136B110EF4
:1051E000126F156B0D0E146F176B180E166F196B6F
:1051F000210E186F010E1A6F000157EC09F00A0119
:10520000136B110E126F156B1B0E146F176B180EAC
:10521000166F196B2F0E186F010E1A6F000157ECE5
:1052200009F00901F3D20A01136B020E126F156B1C
:105230000D0E146F176B180E166F196B130E186F77
:10524000010E1A6F000157EC09F00A01136B110EE1
:10525000126F156B0D0E146F176B180E166F196BFE
:10526000210E186F010E1A6F000157EC09F00A01A8
:10527000136B020E126F156B290E146F176B180E3D
:10528000166F196B2F0E186F010E1A6F000157EC75
:1052900009F00A01136B020E126F156B1B0E146FCF
:1052A000176B090E166F196B2F0E186F010E1A6F00
:1052B000000157EC09F00A01136B020E126F156B17
:1052C0001B0E146F176B180E166F196B210E186FCB
:1052D000010E1A6F000157EC09F0090197D20A017B
:1052E000136B020E126F156B0D0E146F176B180EE9
:1052F000166F196B130E186F010E1A6F000157EC21
:1053000009F00A01136B110E126F156B0D0E146F5D
:10531000176B180E166F196B210E186F010E1A6F8E
:10532000000157EC09F00A01136B110E126F156B97
:105330001B0E146F176B180E166F196B2F0E186F4C
:10534000010E1A6F000157EC09F00A01136B020EEF
:10535000126F156B290E146F176B180E166F196BE1
:105360002F0E186F010E1A6F000157EC09F00A0199
:10537000136B020E126F156B1B0E146F176B180E4A
:10538000166F196B210E186F010E1A6F000157EC82
:1053900009F009013BD20A01136B110E126F156B54
:1053A0000D0E146F176B180E166F196B210E186FF8
:1053B000010E1A6F000157EC09F00A01136B110E70
:1053C000126F156B1B0E146F176B180E166F196B7F
:1053D0002F0E186F010E1A6F000157EC09F00A0129
:1053E000136B020E126F156B0D0E146F176B090EF7
:1053F000166F196B210E186F010E1A6F000157EC12
:1054000009F00A01136B020E126F156B1B0E146F5D
:10541000176B180E166F196B210E186F010E1A6F8D
:10542000000157EC09F00901F1D10A01136B020EDA
:10543000126F156B0D0E146F176B180E166F196B1C
:10544000130E186F010E1A6F000157EC09F00A01D4
:10545000136B110E126F156B1B0E146F176B180E5A
:10546000166F196B2F0E186F010E1A6F000157EC93
:1054700009F00A01136B020E126F156B290E146FDF
:10548000176B180E166F196B2F0E186F010E1A6F0F
:10549000000157EC09F00A01136B020E126F156B35
:1054A0000D0E146F176B090E166F196B210E186F06
:1054B000010E1A6F000157EC09F00A01136B020E7E
:1054C000126F156B1B0E146F176B180E166F196B7E
:1054D000210E186F010E1A6F000157EC09F0090137
:1054E00095D10A01136B020E126F156B0D0E146F1E
:1054F000176B180E166F196B130E186F010E1A6FBB
:10550000000157EC09F00A01136B110E126F156BB5
:105510001B0E146F176B180E166F196B2F0E186F6A
:10552000010E1A6F000157EC09F00A01136B020E0D
:10553000126F156B290E146F176B180E166F196BFF
:105540002F0E186F010E1A6F000157EC09F00A01B7
:10555000136B020E126F156B1B0E146F176B090E77
:10556000166F196B2F0E186F010E1A6F000157EC92
:1055700009F00A01136B020E126F156B0D0E146FFA
:10558000176B090E166F196B210E186F010E1A6F2B
:10559000000157EC09F00A01136B020E126F156B34
:1055A0001B0E146F176B180E166F196B210E186FE8
:1055B000010E1A6F000157EC09F0090127D10A0109
:1055C000136B020E126F156B0D0E146F176B180E06
:1055D000166F196B130E186F010E1A6F000157EC3E
:1055E00009F00A01136B110E126F156B0D0E146F7B
:1055F000176B180E166F196B210E186F010E1A6FAC
:10560000000157EC09F00A01136B110E126F156BB4
:105610001B0E146F176B180E166F196B2F0E186F69
:10562000010E1A6F000157EC09F00901EFD00A01D1
:10563000136B020E126F156B0D0E146F176B180E95
:10564000166F196B130E186F010E1A6F000157ECCD
:1056500009F00A01136B110E126F156B0D0E146F0A
:10566000176B180E166F196B210E186F010E1A6F3B
:10567000000157EC09F00A01136B110E126F156B44
:105680001B0E146F176B180E166F196B2F0E186FF9
:10569000010E1A6F000157EC09F00A01136B020E9C
:1056A000126F156B290E146F176B180E166F196B8E
:1056B0002F0E186F010E1A6F000157EC09F00A0146
:1056C000136B020E126F156B1B0E146F176B090E06
:1056D000166F196B2F0E186F010E1A6F000157EC21
:1056E00009F00A01136B020E126F156B0D0E146F89
:1056F000176B090E166F196B210E186F010E1A6FBA
:10570000000157EC09F00A01136B020E126F156BC2
:105710001B0E146F176B180E166F196B210E186F76
:10572000010E1A6F000157EC09F009016FD00A0150
:10573000136B020E126F156B0D0E146F176B180E94
:10574000166F196B130E186F010E1A6F000157ECCC
:1057500009F00A01136B110E126F156B0D0E146F09
:10576000176B180E166F196B210E186F010E1A6F3A
:10577000000157EC09F00A01136B110E126F156B43
:105780001B0E146F176B180E166F196B2F0E186FF8
:10579000010E1A6F000157EC09F00A01136B020E9B
:1057A000126F156B290E146F176B180E166F196B8D
:1057B0002F0E186F010E1A6F000157EC09F00A0145
:1057C000136B020E126F156B0D0E146F176B090E13
:1057D000166F196B210E186F010E1A6F000157EC2E
:1057E00009F00A01136B020E126F156B1B0E146F7A
:1057F000176B180E166F196B210E186F010E1A6FAA
:10580000000157EC09F0090101D009010001C4EFC2
:1058100033F0F2CF0DF0F29EE824F76AF7363D0F31
:10582000F66E580EF722000EF86EFB6E0A00F55069
:10583000FA6E0800F5500DBEF28EF96EFE50DA5188
:105840002652DE5296532A54E254BE552E562E57F7
:1058500009016151F60FD8B080D30A0F0001B0EFF3
:105860002FF00A01136B1B0E126F156B0D0E146FC8
:10587000176B310E166F196B130E186F010E1A6F1E
:10588000000157EC09F00A01136B2A0E126F156B19
:105890000D0E146F176B310E166F196B210E186FEA
:1058A000010E1A6F000157EC09F00A01136B2A0E62
:1058B000126F156B1B0E146F176B310E166F196B71
:1058C0002F0E186F010E1A6F000157EC09F00A0134
:1058D000136B1B0E126F156B290E146F176B310EA5
:1058E000166F196B2F0E186F010E1A6F000157EC0F
:1058F00009F00A01136B1B0E126F156B146F176BF7
:10590000220E166F196B2F0E186F010E1A6F000101
:1059100057EC09F00A01136B1B0E126F156B0D0E7D
:10592000146F176B220E166F196B210E186F010E74
:105930001A6F000157EC09F009010FD30A01136B2C
:105940002A0E126F156B0D0E146F176B310E166F3A
:10595000196B210E186F010E1A6F000157EC09F038
:105960000A01136B2A0E126F156B1B0E146F176B47
:10597000310E166F196B2F0E186F010E1A6F000182
:1059800057EC09F00901E9D20A01136B1B0E126FE3
:10599000156B0D0E146F176B310E166F196B130EFE
:1059A000186F010E1A6F000157EC09F00A01136B12
:1059B0002A0E126F156B0D0E146F176B310E166FCA
:1059C000196B210E186F010E1A6F000157EC09F0C8
:1059D0000A01136B1B0E126F156B290E146F176BD8
:1059E000310E166F196B2F0E186F010E1A6F000112
:1059F00057EC09F00A01136B1B0E126F156B146F35
:105A0000176B220E166F196B2F0E186F010E1A6F7F
:105A1000000157EC09F00A01136B1B0E126F156B96
:105A2000146F176B310E166F196B210E186F010E64
:105A30001A6F000157EC09F009018FD20A01136BAC
:105A40001B0E126F156B0D0E146F176B310E166F48
:105A5000196B130E186F010E1A6F000157EC09F045
:105A60000A01136B2A0E126F156B0D0E146F176B54
:105A7000310E166F196B210E186F010E1A6F00018F
:105A800057EC09F00A01136B2A0E126F156B1B0EEF
:105A9000146F176B310E166F196B2F0E186F010EE6
:105AA0001A6F000157EC09F00A01136B1B0E126FFD
:105AB000156B290E146F176B310E166F196B2F0EA5
:105AC000186F010E1A6F000157EC09F00A01136BF1
:105AD0001B0E126F156B146F176B310E166F196B4F
